{
  "contractName": "Certificate",
  "abi": [
    {
      "inputs": [
        {
          "internalType": "address",
          "name": "_oracle",
          "type": "address"
        },
        {
          "internalType": "address",
          "name": "_linkToken",
          "type": "address"
        },
        {
          "internalType": "bytes32",
          "name": "_jobId",
          "type": "bytes32"
        },
        {
          "internalType": "string",
          "name": "_apiUrl",
          "type": "string"
        }
      ],
      "stateMutability": "nonpayable",
      "type": "constructor"
    },
    {
      "anonymous": false,
      "inputs": [
        {
          "indexed": true,
          "internalType": "address",
          "name": "owner",
          "type": "address"
        },
        {
          "indexed": true,
          "internalType": "address",
          "name": "approved",
          "type": "address"
        },
        {
          "indexed": true,
          "internalType": "uint256",
          "name": "tokenId",
          "type": "uint256"
        }
      ],
      "name": "Approval",
      "type": "event"
    },
    {
      "anonymous": false,
      "inputs": [
        {
          "indexed": true,
          "internalType": "address",
          "name": "owner",
          "type": "address"
        },
        {
          "indexed": true,
          "internalType": "address",
          "name": "operator",
          "type": "address"
        },
        {
          "indexed": false,
          "internalType": "bool",
          "name": "approved",
          "type": "bool"
        }
      ],
      "name": "ApprovalForAll",
      "type": "event"
    },
    {
      "anonymous": false,
      "inputs": [
        {
          "indexed": true,
          "internalType": "bytes32",
          "name": "id",
          "type": "bytes32"
        }
      ],
      "name": "ChainlinkCancelled",
      "type": "event"
    },
    {
      "anonymous": false,
      "inputs": [
        {
          "indexed": true,
          "internalType": "bytes32",
          "name": "id",
          "type": "bytes32"
        }
      ],
      "name": "ChainlinkFulfilled",
      "type": "event"
    },
    {
      "anonymous": false,
      "inputs": [
        {
          "indexed": true,
          "internalType": "bytes32",
          "name": "id",
          "type": "bytes32"
        }
      ],
      "name": "ChainlinkRequested",
      "type": "event"
    },
    {
      "anonymous": false,
      "inputs": [
        {
          "indexed": false,
          "internalType": "string",
          "name": "tokenUri",
          "type": "string"
        },
        {
          "indexed": false,
          "internalType": "uint256",
          "name": "timestamp",
          "type": "uint256"
        },
        {
          "indexed": false,
          "internalType": "uint256",
          "name": "tokenId",
          "type": "uint256"
        }
      ],
      "name": "Minted",
      "type": "event"
    },
    {
      "anonymous": false,
      "inputs": [
        {
          "indexed": true,
          "internalType": "address",
          "name": "previousOwner",
          "type": "address"
        },
        {
          "indexed": true,
          "internalType": "address",
          "name": "newOwner",
          "type": "address"
        }
      ],
      "name": "OwnershipTransferred",
      "type": "event"
    },
    {
      "anonymous": false,
      "inputs": [
        {
          "indexed": true,
          "internalType": "address",
          "name": "from",
          "type": "address"
        },
        {
          "indexed": true,
          "internalType": "address",
          "name": "to",
          "type": "address"
        },
        {
          "indexed": true,
          "internalType": "uint256",
          "name": "tokenId",
          "type": "uint256"
        }
      ],
      "name": "Transfer",
      "type": "event"
    },
    {
      "anonymous": false,
      "inputs": [
        {
          "indexed": false,
          "internalType": "uint256",
          "name": "timestamp",
          "type": "uint256"
        },
        {
          "indexed": false,
          "internalType": "uint256",
          "name": "tokenId",
          "type": "uint256"
        }
      ],
      "name": "TreeBurnt",
      "type": "event"
    },
    {
      "inputs": [],
      "name": "apiUrl",
      "outputs": [
        {
          "internalType": "string",
          "name": "",
          "type": "string"
        }
      ],
      "stateMutability": "view",
      "type": "function"
    },
    {
      "inputs": [
        {
          "internalType": "address",
          "name": "to",
          "type": "address"
        },
        {
          "internalType": "uint256",
          "name": "tokenId",
          "type": "uint256"
        }
      ],
      "name": "approve",
      "outputs": [],
      "stateMutability": "nonpayable",
      "type": "function"
    },
    {
      "inputs": [
        {
          "internalType": "address",
          "name": "owner",
          "type": "address"
        }
      ],
      "name": "balanceOf",
      "outputs": [
        {
          "internalType": "uint256",
          "name": "",
          "type": "uint256"
        }
      ],
      "stateMutability": "view",
      "type": "function"
    },
    {
      "inputs": [
        {
          "internalType": "uint256",
          "name": "tokenId",
          "type": "uint256"
        }
      ],
      "name": "getApproved",
      "outputs": [
        {
          "internalType": "address",
          "name": "",
          "type": "address"
        }
      ],
      "stateMutability": "view",
      "type": "function"
    },
    {
      "inputs": [
        {
          "internalType": "address",
          "name": "owner",
          "type": "address"
        },
        {
          "internalType": "address",
          "name": "operator",
          "type": "address"
        }
      ],
      "name": "isApprovedForAll",
      "outputs": [
        {
          "internalType": "bool",
          "name": "",
          "type": "bool"
        }
      ],
      "stateMutability": "view",
      "type": "function"
    },
    {
      "inputs": [],
      "name": "name",
      "outputs": [
        {
          "internalType": "string",
          "name": "",
          "type": "string"
        }
      ],
      "stateMutability": "view",
      "type": "function"
    },
    {
      "inputs": [
        {
          "internalType": "uint256",
          "name": "",
          "type": "uint256"
        }
      ],
      "name": "offsetCapacities",
      "outputs": [
        {
          "internalType": "uint256",
          "name": "",
          "type": "uint256"
        }
      ],
      "stateMutability": "view",
      "type": "function"
    },
    {
      "inputs": [],
      "name": "offsetCapacity",
      "outputs": [
        {
          "internalType": "uint256",
          "name": "",
          "type": "uint256"
        }
      ],
      "stateMutability": "view",
      "type": "function"
    },
    {
      "inputs": [],
      "name": "owner",
      "outputs": [
        {
          "internalType": "address",
          "name": "",
          "type": "address"
        }
      ],
      "stateMutability": "view",
      "type": "function"
    },
    {
      "inputs": [
        {
          "internalType": "uint256",
          "name": "tokenId",
          "type": "uint256"
        }
      ],
      "name": "ownerOf",
      "outputs": [
        {
          "internalType": "address",
          "name": "",
          "type": "address"
        }
      ],
      "stateMutability": "view",
      "type": "function"
    },
    {
      "inputs": [],
      "name": "renounceOwnership",
      "outputs": [],
      "stateMutability": "nonpayable",
      "type": "function"
    },
    {
      "inputs": [
        {
          "internalType": "address",
          "name": "from",
          "type": "address"
        },
        {
          "internalType": "address",
          "name": "to",
          "type": "address"
        },
        {
          "internalType": "uint256",
          "name": "tokenId",
          "type": "uint256"
        }
      ],
      "name": "safeTransferFrom",
      "outputs": [],
      "stateMutability": "nonpayable",
      "type": "function"
    },
    {
      "inputs": [
        {
          "internalType": "address",
          "name": "from",
          "type": "address"
        },
        {
          "internalType": "address",
          "name": "to",
          "type": "address"
        },
        {
          "internalType": "uint256",
          "name": "tokenId",
          "type": "uint256"
        },
        {
          "internalType": "bytes",
          "name": "data",
          "type": "bytes"
        }
      ],
      "name": "safeTransferFrom",
      "outputs": [],
      "stateMutability": "nonpayable",
      "type": "function"
    },
    {
      "inputs": [
        {
          "internalType": "address",
          "name": "operator",
          "type": "address"
        },
        {
          "internalType": "bool",
          "name": "approved",
          "type": "bool"
        }
      ],
      "name": "setApprovalForAll",
      "outputs": [],
      "stateMutability": "nonpayable",
      "type": "function"
    },
    {
      "inputs": [
        {
          "internalType": "bytes4",
          "name": "interfaceId",
          "type": "bytes4"
        }
      ],
      "name": "supportsInterface",
      "outputs": [
        {
          "internalType": "bool",
          "name": "",
          "type": "bool"
        }
      ],
      "stateMutability": "view",
      "type": "function"
    },
    {
      "inputs": [],
      "name": "symbol",
      "outputs": [
        {
          "internalType": "string",
          "name": "",
          "type": "string"
        }
      ],
      "stateMutability": "view",
      "type": "function"
    },
    {
      "inputs": [],
      "name": "tokenId",
      "outputs": [
        {
          "internalType": "uint256",
          "name": "",
          "type": "uint256"
        }
      ],
      "stateMutability": "view",
      "type": "function"
    },
    {
      "inputs": [
        {
          "internalType": "uint256",
          "name": "tokenId",
          "type": "uint256"
        }
      ],
      "name": "tokenURI",
      "outputs": [
        {
          "internalType": "string",
          "name": "",
          "type": "string"
        }
      ],
      "stateMutability": "view",
      "type": "function"
    },
    {
      "inputs": [
        {
          "internalType": "address",
          "name": "from",
          "type": "address"
        },
        {
          "internalType": "address",
          "name": "to",
          "type": "address"
        },
        {
          "internalType": "uint256",
          "name": "tokenId",
          "type": "uint256"
        }
      ],
      "name": "transferFrom",
      "outputs": [],
      "stateMutability": "nonpayable",
      "type": "function"
    },
    {
      "inputs": [
        {
          "internalType": "address",
          "name": "newOwner",
          "type": "address"
        }
      ],
      "name": "transferOwnership",
      "outputs": [],
      "stateMutability": "nonpayable",
      "type": "function"
    },
    {
      "inputs": [
        {
          "internalType": "uint256",
          "name": "",
          "type": "uint256"
        }
      ],
      "name": "treeStatus",
      "outputs": [
        {
          "internalType": "bool",
          "name": "",
          "type": "bool"
        }
      ],
      "stateMutability": "view",
      "type": "function"
    },
    {
      "inputs": [
        {
          "internalType": "string",
          "name": "tokenURI",
          "type": "string"
        },
        {
          "internalType": "uint256",
          "name": "price",
          "type": "uint256"
        }
      ],
      "name": "mint",
      "outputs": [
        {
          "internalType": "uint256",
          "name": "",
          "type": "uint256"
        }
      ],
      "stateMutability": "payable",
      "type": "function"
    },
    {
      "inputs": [
        {
          "internalType": "string",
          "name": "_url",
          "type": "string"
        }
      ],
      "name": "setApiUrl",
      "outputs": [],
      "stateMutability": "nonpayable",
      "type": "function"
    },
    {
      "inputs": [
        {
          "internalType": "string",
          "name": "_tokenId",
          "type": "string"
        }
      ],
      "name": "getTreeDetails",
      "outputs": [],
      "stateMutability": "payable",
      "type": "function"
    },
    {
      "inputs": [
        {
          "internalType": "bytes32",
          "name": "requestId",
          "type": "bytes32"
        },
        {
          "internalType": "uint256",
          "name": "tokenResponse",
          "type": "uint256"
        },
        {
          "internalType": "uint256",
          "name": "offsetResponse",
          "type": "uint256"
        }
      ],
      "name": "fulfill",
      "outputs": [],
      "stateMutability": "nonpayable",
      "type": "function"
    },
    {
      "inputs": [],
      "name": "withdrawLink",
      "outputs": [],
      "stateMutability": "nonpayable",
      "type": "function"
    }
  ],
  "bytecode": "0x60806040526001600b553480156200001657600080fd5b50604051620053bb380380620053bb83398181016040528101906200003c919062000573565b6040518060400160405280600d81526020017f50726f6a656374204b65696c61000000000000000000000000000000000000008152506040518060400160405280600581526020017f4b45494c410000000000000000000000000000000000000000000000000000008152508160009081620000b991906200084f565b508060019081620000cb91906200084f565b505050620000ee620000e2620001e060201b60201c565b620001e860201b60201c565b82601460006101000a81548173ffffffffffffffffffffffffffffffffffffffff021916908373ffffffffffffffffffffffffffffffffffffffff16021790555083601360006101000a81548173ffffffffffffffffffffffffffffffffffffffff021916908373ffffffffffffffffffffffffffffffffffffffff1602179055506200018183620002ae60201b60201c565b6200019284620002f260201b60201c565b81600f81905550600a670de0b6b3a76400006001620001b2919062000965565b620001be9190620009f5565b6010819055508060159081620001d591906200084f565b505050505062000a2d565b600033905090565b6000600d60009054906101000a900473ffffffffffffffffffffffffffffffffffffffff16905081600d60006101000a81548173ffffffffffffffffffffffffffffffffffffffff021916908373ffffffffffffffffffffffffffffffffffffffff1602179055508173ffffffffffffffffffffffffffffffffffffffff168173ffffffffffffffffffffffffffffffffffffffff167f8be0079c531659141344cd1fd0a4f28419497f9722a3daafe3b4186f6b6457e060405160405180910390a35050565b80600960006101000a81548173ffffffffffffffffffffffffffffffffffffffff021916908373ffffffffffffffffffffffffffffffffffffffff16021790555050565b80600a60006101000a81548173ffffffffffffffffffffffffffffffffffffffff021916908373ffffffffffffffffffffffffffffffffffffffff16021790555050565b6000604051905090565b600080fd5b600080fd5b600073ffffffffffffffffffffffffffffffffffffffff82169050919050565b600062000377826200034a565b9050919050565b62000389816200036a565b81146200039557600080fd5b50565b600081519050620003a9816200037e565b92915050565b6000819050919050565b620003c481620003af565b8114620003d057600080fd5b50565b600081519050620003e481620003b9565b92915050565b600080fd5b600080fd5b6000601f19601f8301169050919050565b7f4e487b7100000000000000000000000000000000000000000000000000000000600052604160045260246000fd5b6200043f82620003f4565b810181811067ffffffffffffffff8211171562000461576200046062000405565b5b80604052505050565b60006200047662000336565b905062000484828262000434565b919050565b600067ffffffffffffffff821115620004a757620004a662000405565b5b620004b282620003f4565b9050602081019050919050565b60005b83811015620004df578082015181840152602081019050620004c2565b83811115620004ef576000848401525b50505050565b60006200050c620005068462000489565b6200046a565b9050828152602081018484840111156200052b576200052a620003ef565b5b62000538848285620004bf565b509392505050565b600082601f830112620005585762000557620003ea565b5b81516200056a848260208601620004f5565b91505092915050565b6000806000806080858703121562000590576200058f62000340565b5b6000620005a08782880162000398565b9450506020620005b38782880162000398565b9350506040620005c687828801620003d3565b925050606085015167ffffffffffffffff811115620005ea57620005e962000345565b5b620005f88782880162000540565b91505092959194509250565b600081519050919050565b7f4e487b7100000000000000000000000000000000000000000000000000000000600052602260045260246000fd5b600060028204905060018216806200065757607f821691505b6020821081036200066d576200066c6200060f565b5b50919050565b60008190508160005260206000209050919050565b60006020601f8301049050919050565b600082821b905092915050565b600060088302620006d77fffffffffffffffffffffffffffffffffffffffffffffffffffffffffffffffff8262000698565b620006e3868362000698565b95508019841693508086168417925050509392505050565b6000819050919050565b6000819050919050565b6000620007306200072a6200072484620006fb565b62000705565b620006fb565b9050919050565b6000819050919050565b6200074c836200070f565b620007646200075b8262000737565b848454620006a5565b825550505050565b600090565b6200077b6200076c565b6200078881848462000741565b505050565b5b81811015620007b057620007a460008262000771565b6001810190506200078e565b5050565b601f821115620007ff57620007c98162000673565b620007d48462000688565b81016020851015620007e4578190505b620007fc620007f38562000688565b8301826200078d565b50505b505050565b600082821c905092915050565b6000620008246000198460080262000804565b1980831691505092915050565b60006200083f838362000811565b9150826002028217905092915050565b6200085a8262000604565b67ffffffffffffffff81111562000876576200087562000405565b5b6200088282546200063e565b6200088f828285620007b4565b600060209050601f831160018114620008c75760008415620008b2578287015190505b620008be858262000831565b8655506200092e565b601f198416620008d78662000673565b60005b828110156200090157848901518255600182019150602085019450602081019050620008da565b868310156200092157848901516200091d601f89168262000811565b8355505b6001600288020188555050505b505050505050565b7f4e487b7100000000000000000000000000000000000000000000000000000000600052601160045260246000fd5b60006200097282620006fb565b91506200097f83620006fb565b9250817fffffffffffffffffffffffffffffffffffffffffffffffffffffffffffffffff0483118215151615620009bb57620009ba62000936565b5b828202905092915050565b7f4e487b7100000000000000000000000000000000000000000000000000000000600052601260045260246000fd5b600062000a0282620006fb565b915062000a0f83620006fb565b92508262000a225762000a21620009c6565b5b828204905092915050565b61497e8062000a3d6000396000f3fe6080604052600436106101815760003560e01c80638367e120116100d1578063b88d4fde1161008a578063e8c75a3011610064578063e8c75a3014610566578063e94d1fdc1461058f578063e985e9c5146105cc578063f2fde38b1461060957610181565b8063b88d4fde146104e4578063c87b56dd1461050d578063ce8e341f1461054a57610181565b80638367e120146103fa57806388a997bf146104255780638da5cb5b1461044e5780638dc654a21461047957806395d89b4114610490578063a22cb465146104bb57610181565b806323b872dd1161013e5780635f2f229c116101185780635f2f229c1461032c5780636352211e1461036957806370a08231146103a6578063715018a6146103e357610181565b806323b872dd146102af57806342842e0e146102d85780635d5a7b581461030157610181565b806301ffc9a714610186578063056b01ce146101c357806306fdde03146101f3578063081812fc1461021e578063095ea7b31461025b57806317d70f7c14610284575b600080fd5b34801561019257600080fd5b506101ad60048036038101906101a89190612dfd565b610632565b6040516101ba9190612e45565b60405180910390f35b6101dd60048036038101906101d89190612fdc565b610714565b6040516101ea9190613047565b60405180910390f35b3480156101ff57600080fd5b5061020861084c565b60405161021591906130ea565b60405180910390f35b34801561022a57600080fd5b506102456004803603810190610240919061310c565b6108de565b604051610252919061317a565b60405180910390f35b34801561026757600080fd5b50610282600480360381019061027d91906131c1565b610924565b005b34801561029057600080fd5b50610299610a3b565b6040516102a69190613047565b60405180910390f35b3480156102bb57600080fd5b506102d660048036038101906102d19190613201565b610a41565b005b3480156102e457600080fd5b506102ff60048036038101906102fa9190613201565b610aa1565b005b34801561030d57600080fd5b50610316610ac1565b6040516103239190613047565b60405180910390f35b34801561033857600080fd5b50610353600480360381019061034e919061310c565b610ac7565b6040516103609190613047565b60405180910390f35b34801561037557600080fd5b50610390600480360381019061038b919061310c565b610adf565b60405161039d919061317a565b60405180910390f35b3480156103b257600080fd5b506103cd60048036038101906103c89190613254565b610b90565b6040516103da9190613047565b60405180910390f35b3480156103ef57600080fd5b506103f8610c47565b005b34801561040657600080fd5b5061040f610c5b565b60405161041c91906130ea565b60405180910390f35b34801561043157600080fd5b5061044c600480360381019061044791906132b7565b610ce9565b005b34801561045a57600080fd5b50610463610e46565b604051610470919061317a565b60405180910390f35b34801561048557600080fd5b5061048e610e70565b005b34801561049c57600080fd5b506104a5610fb5565b6040516104b291906130ea565b60405180910390f35b3480156104c757600080fd5b506104e260048036038101906104dd9190613336565b611047565b005b3480156104f057600080fd5b5061050b60048036038101906105069190613417565b61105d565b005b34801561051957600080fd5b50610534600480360381019061052f919061310c565b6110bf565b60405161054191906130ea565b60405180910390f35b610564600480360381019061055f919061349a565b6111d1565b005b34801561057257600080fd5b5061058d6004803603810190610588919061349a565b6113de565b005b34801561059b57600080fd5b506105b660048036038101906105b1919061310c565b6113f1565b6040516105c39190612e45565b60405180910390f35b3480156105d857600080fd5b506105f360048036038101906105ee91906134e3565b611411565b6040516106009190612e45565b60405180910390f35b34801561061557600080fd5b50610630600480360381019061062b9190613254565b6114a5565b005b60007f80ac58cd000000000000000000000000000000000000000000000000000000007bffffffffffffffffffffffffffffffffffffffffffffffffffffffff1916827bffffffffffffffffffffffffffffffffffffffffffffffffffffffff191614806106fd57507f5b5e139f000000000000000000000000000000000000000000000000000000007bffffffffffffffffffffffffffffffffffffffffffffffffffffffff1916827bffffffffffffffffffffffffffffffffffffffffffffffffffffffff1916145b8061070d575061070c82611528565b5b9050919050565b6000818034101561075a576040517f08c379a000000000000000000000000000000000000000000000000000000000815260040161075190613595565b60405180910390fd5b610764600e611592565b6000610770600e6115a8565b905061077c33826115b6565b610786818661178f565b60016017600083815260200190815260200160002060006101000a81548160ff02191690831515021790555060006107bc610e46565b90508073ffffffffffffffffffffffffffffffffffffffff166108fc349081150290604051600060405180830381858888f19350505050158015610804573d6000803e3d6000fd5b507f39a13417d99e19d77fddcaf327969095598dbf3754b6362a2b61887d24f0d864864284604051610838939291906135b5565b60405180910390a181935050505092915050565b60606000805461085b90613622565b80601f016020809104026020016040519081016040528092919081815260200182805461088790613622565b80156108d45780601f106108a9576101008083540402835291602001916108d4565b820191906000526020600020905b8154815290600101906020018083116108b757829003601f168201915b5050505050905090565b60006108e9826117fc565b6004600083815260200190815260200160002060009054906101000a900473ffffffffffffffffffffffffffffffffffffffff169050919050565b600061092f82610adf565b90508073ffffffffffffffffffffffffffffffffffffffff168373ffffffffffffffffffffffffffffffffffffffff160361099f576040517f08c379a0000000000000000000000000000000000000000000000000000000008152600401610996906136c5565b60405180910390fd5b8073ffffffffffffffffffffffffffffffffffffffff166109be611847565b73ffffffffffffffffffffffffffffffffffffffff1614806109ed57506109ec816109e7611847565b611411565b5b610a2c576040517f08c379a0000000000000000000000000000000000000000000000000000000008152600401610a2390613757565b60405180910390fd5b610a36838361184f565b505050565b60115481565b610a52610a4c611847565b82611908565b610a91576040517f08c379a0000000000000000000000000000000000000000000000000000000008152600401610a88906137e9565b60405180910390fd5b610a9c83838361199d565b505050565b610abc8383836040518060200160405280600081525061105d565b505050565b60125481565b60166020528060005260406000206000915090505481565b6000806002600084815260200190815260200160002060009054906101000a900473ffffffffffffffffffffffffffffffffffffffff169050600073ffffffffffffffffffffffffffffffffffffffff168173ffffffffffffffffffffffffffffffffffffffff1603610b87576040517f08c379a0000000000000000000000000000000000000000000000000000000008152600401610b7e90613855565b60405180910390fd5b80915050919050565b60008073ffffffffffffffffffffffffffffffffffffffff168273ffffffffffffffffffffffffffffffffffffffff1603610c00576040517f08c379a0000000000000000000000000000000000000000000000000000000008152600401610bf7906138e7565b60405180910390fd5b600360008373ffffffffffffffffffffffffffffffffffffffff1673ffffffffffffffffffffffffffffffffffffffff168152602001908152602001600020549050919050565b610c4f611c03565b610c596000611c81565b565b60158054610c6890613622565b80601f0160208091040260200160405190810160405280929190818152602001828054610c9490613622565b8015610ce15780601f10610cb657610100808354040283529160200191610ce1565b820191906000526020600020905b815481529060010190602001808311610cc457829003601f168201915b505050505081565b82600c600082815260200190815260200160002060009054906101000a900473ffffffffffffffffffffffffffffffffffffffff1673ffffffffffffffffffffffffffffffffffffffff163373ffffffffffffffffffffffffffffffffffffffff1614610d8b576040517f08c379a0000000000000000000000000000000000000000000000000000000008152600401610d8290613979565b60405180910390fd5b600c600082815260200190815260200160002060006101000a81549073ffffffffffffffffffffffffffffffffffffffff0219169055807f7cc135e0cebb02c3480ae5d74d377283180a2601f8f644edf7987b009316c63a60405160405180910390a27f19bc2f77b005ea3e3a8a72aa3718cf061b636b40ec576bf39386cea9b6397d14426001604051610e209291906139de565b60405180910390a181601660008581526020019081526020016000208190555050505050565b6000600d60009054906101000a900473ffffffffffffffffffffffffffffffffffffffff16905090565b6000610e7a611d47565b90508073ffffffffffffffffffffffffffffffffffffffff1663a9059cbb338373ffffffffffffffffffffffffffffffffffffffff166370a08231306040518263ffffffff1660e01b8152600401610ed2919061317a565b602060405180830381865afa158015610eef573d6000803e3d6000fd5b505050506040513d601f19601f82011682018060405250810190610f139190613a1c565b6040518363ffffffff1660e01b8152600401610f30929190613a49565b6020604051808303816000875af1158015610f4f573d6000803e3d6000fd5b505050506040513d601f19601f82011682018060405250810190610f739190613a87565b610fb2576040517f08c379a0000000000000000000000000000000000000000000000000000000008152600401610fa990613b00565b60405180910390fd5b50565b606060018054610fc490613622565b80601f0160208091040260200160405190810160405280929190818152602001828054610ff090613622565b801561103d5780601f106110125761010080835404028352916020019161103d565b820191906000526020600020905b81548152906001019060200180831161102057829003601f168201915b5050505050905090565b611059611052611847565b8383611d71565b5050565b61106e611068611847565b83611908565b6110ad576040517f08c379a00000000000000000000000000000000000000000000000000000000081526004016110a4906137e9565b60405180910390fd5b6110b984848484611edd565b50505050565b60606110ca826117fc565b60006006600084815260200190815260200160002080546110ea90613622565b80601f016020809104026020016040519081016040528092919081815260200182805461111690613622565b80156111635780601f1061113857610100808354040283529160200191611163565b820191906000526020600020905b81548152906001019060200180831161114657829003601f168201915b505050505090506000611174611f39565b905060008151036111895781925050506111cc565b6000825111156111be5780826040516020016111a6929190613b5c565b604051602081830303815290604052925050506111cc565b6111c784611f50565b925050505b919050565b60006111e7600f54306388a997bf60e01b611fb8565b90506112cf6040518060400160405280600381526020017f67657400000000000000000000000000000000000000000000000000000000008152506112bf846015805461123390613622565b80601f016020809104026020016040519081016040528092919081815260200182805461125f90613622565b80156112ac5780601f10611281576101008083540402835291602001916112ac565b820191906000526020600020905b81548152906001019060200180831161128f57829003601f168201915b5050505050611fe990919063ffffffff16565b836121849092919063ffffffff16565b61134e6040518060400160405280600981526020017f70617468544f4b454e00000000000000000000000000000000000000000000008152506040518060400160405280600581526020017f544f4b454e000000000000000000000000000000000000000000000000000000815250836121849092919063ffffffff16565b6113cd6040518060400160405280600a81526020017f706174684f4646534554000000000000000000000000000000000000000000008152506040518060400160405280600681526020017f4f46465345540000000000000000000000000000000000000000000000000000815250836121849092919063ffffffff16565b6113d9816010546121b7565b505050565b80601590816113ed9190613d22565b5050565b60176020528060005260406000206000915054906101000a900460ff1681565b6000600560008473ffffffffffffffffffffffffffffffffffffffff1673ffffffffffffffffffffffffffffffffffffffff16815260200190815260200160002060008373ffffffffffffffffffffffffffffffffffffffff1673ffffffffffffffffffffffffffffffffffffffff16815260200190815260200160002060009054906101000a900460ff16905092915050565b6114ad611c03565b600073ffffffffffffffffffffffffffffffffffffffff168173ffffffffffffffffffffffffffffffffffffffff160361151c576040517f08c379a000000000000000000000000000000000000000000000000000000000815260040161151390613e66565b60405180910390fd5b61152581611c81565b50565b60007f01ffc9a7000000000000000000000000000000000000000000000000000000007bffffffffffffffffffffffffffffffffffffffffffffffffffffffff1916827bffffffffffffffffffffffffffffffffffffffffffffffffffffffff1916149050919050565b6001816000016000828254019250508190555050565b600081600001549050919050565b600073ffffffffffffffffffffffffffffffffffffffff168273ffffffffffffffffffffffffffffffffffffffff1603611625576040517f08c379a000000000000000000000000000000000000000000000000000000000815260040161161c90613ed2565b60405180910390fd5b61162e816121ee565b1561166e576040517f08c379a000000000000000000000000000000000000000000000000000000000815260040161166590613f3e565b60405180910390fd5b61167a6000838361225a565b6001600360008473ffffffffffffffffffffffffffffffffffffffff1673ffffffffffffffffffffffffffffffffffffffff16815260200190815260200160002060008282546116ca9190613f8d565b92505081905550816002600083815260200190815260200160002060006101000a81548173ffffffffffffffffffffffffffffffffffffffff021916908373ffffffffffffffffffffffffffffffffffffffff160217905550808273ffffffffffffffffffffffffffffffffffffffff16600073ffffffffffffffffffffffffffffffffffffffff167fddf252ad1be2c89b69c2b068fc378daa952ba7f163c4a11628f55a4df523b3ef60405160405180910390a461178b6000838361225f565b5050565b611798826121ee565b6117d7576040517f08c379a00000000000000000000000000000000000000000000000000000000081526004016117ce90614055565b60405180910390fd5b806006600084815260200190815260200160002090816117f79190613d22565b505050565b611805816121ee565b611844576040517f08c379a000000000000000000000000000000000000000000000000000000000815260040161183b90613855565b60405180910390fd5b50565b600033905090565b816004600083815260200190815260200160002060006101000a81548173ffffffffffffffffffffffffffffffffffffffff021916908373ffffffffffffffffffffffffffffffffffffffff160217905550808273ffffffffffffffffffffffffffffffffffffffff166118c283610adf565b73ffffffffffffffffffffffffffffffffffffffff167f8c5be1e5ebec7d5bd14f71427d1e84f3dd0314c0f7b2291e5b200ac8c7c3b92560405160405180910390a45050565b60008061191483610adf565b90508073ffffffffffffffffffffffffffffffffffffffff168473ffffffffffffffffffffffffffffffffffffffff16148061195657506119558185611411565b5b8061199457508373ffffffffffffffffffffffffffffffffffffffff1661197c846108de565b73ffffffffffffffffffffffffffffffffffffffff16145b91505092915050565b8273ffffffffffffffffffffffffffffffffffffffff166119bd82610adf565b73ffffffffffffffffffffffffffffffffffffffff1614611a13576040517f08c379a0000000000000000000000000000000000000000000000000000000008152600401611a0a906140e7565b60405180910390fd5b600073ffffffffffffffffffffffffffffffffffffffff168273ffffffffffffffffffffffffffffffffffffffff1603611a82576040517f08c379a0000000000000000000000000000000000000000000000000000000008152600401611a7990614179565b60405180910390fd5b611a8d83838361225a565b611a9860008261184f565b6001600360008573ffffffffffffffffffffffffffffffffffffffff1673ffffffffffffffffffffffffffffffffffffffff1681526020019081526020016000206000828254611ae89190614199565b925050819055506001600360008473ffffffffffffffffffffffffffffffffffffffff1673ffffffffffffffffffffffffffffffffffffffff1681526020019081526020016000206000828254611b3f9190613f8d565b92505081905550816002600083815260200190815260200160002060006101000a81548173ffffffffffffffffffffffffffffffffffffffff021916908373ffffffffffffffffffffffffffffffffffffffff160217905550808273ffffffffffffffffffffffffffffffffffffffff168473ffffffffffffffffffffffffffffffffffffffff167fddf252ad1be2c89b69c2b068fc378daa952ba7f163c4a11628f55a4df523b3ef60405160405180910390a4611bfe83838361225f565b505050565b611c0b611847565b73ffffffffffffffffffffffffffffffffffffffff16611c29610e46565b73ffffffffffffffffffffffffffffffffffffffff1614611c7f576040517f08c379a0000000000000000000000000000000000000000000000000000000008152600401611c7690614219565b60405180910390fd5b565b6000600d60009054906101000a900473ffffffffffffffffffffffffffffffffffffffff16905081600d60006101000a81548173ffffffffffffffffffffffffffffffffffffffff021916908373ffffffffffffffffffffffffffffffffffffffff1602179055508173ffffffffffffffffffffffffffffffffffffffff168173ffffffffffffffffffffffffffffffffffffffff167f8be0079c531659141344cd1fd0a4f28419497f9722a3daafe3b4186f6b6457e060405160405180910390a35050565b6000600960009054906101000a900473ffffffffffffffffffffffffffffffffffffffff16905090565b8173ffffffffffffffffffffffffffffffffffffffff168373ffffffffffffffffffffffffffffffffffffffff1603611ddf576040517f08c379a0000000000000000000000000000000000000000000000000000000008152600401611dd690614285565b60405180910390fd5b80600560008573ffffffffffffffffffffffffffffffffffffffff1673ffffffffffffffffffffffffffffffffffffffff16815260200190815260200160002060008473ffffffffffffffffffffffffffffffffffffffff1673ffffffffffffffffffffffffffffffffffffffff16815260200190815260200160002060006101000a81548160ff0219169083151502179055508173ffffffffffffffffffffffffffffffffffffffff168373ffffffffffffffffffffffffffffffffffffffff167f17307eab39ab6107e8899845ad3d59bd9653f200f220920489ca2b5937696c3183604051611ed09190612e45565b60405180910390a3505050565b611ee884848461199d565b611ef484848484612264565b611f33576040517f08c379a0000000000000000000000000000000000000000000000000000000008152600401611f2a90614317565b60405180910390fd5b50505050565b606060405180602001604052806000815250905090565b6060611f5b826117fc565b6000611f65611f39565b90506000815111611f855760405180602001604052806000815250611fb0565b80611f8f846123eb565b604051602001611fa0929190613b5c565b6040516020818303038152906040525b915050919050565b611fc0612d0a565b611fc8612d0a565b611fdf8585858461254b909392919063ffffffff16565b9150509392505050565b6060600083905060008390506000815183516120059190613f8d565b67ffffffffffffffff81111561201e5761201d612e7b565b5b6040519080825280601f01601f1916602001820160405280156120505781602001600182028036833780820191505090505b5090506000819050600080600091505b85518210156120e85785828151811061207c5761207b614337565b5b602001015160f81c60f81b83828061209390614366565b9350815181106120a6576120a5614337565b5b60200101907effffffffffffffffffffffffffffffffffffffffffffffffffffffffffffff1916908160001a90535081806120e090614366565b925050612060565b600091505b84518210156121755784828151811061210957612108614337565b5b602001015160f81c60f81b83828061212090614366565b93508151811061213357612132614337565b5b60200101907effffffffffffffffffffffffffffffffffffffffffffffffffffffffffffff1916908160001a905350818061216d90614366565b9250506120ed565b82965050505050505092915050565b61219b8284608001516125fb90919063ffffffff16565b6121b28184608001516125fb90919063ffffffff16565b505050565b60006121e6600a60009054906101000a900473ffffffffffffffffffffffffffffffffffffffff168484612620565b905092915050565b60008073ffffffffffffffffffffffffffffffffffffffff166002600084815260200190815260200160002060009054906101000a900473ffffffffffffffffffffffffffffffffffffffff1673ffffffffffffffffffffffffffffffffffffffff1614159050919050565b505050565b505050565b60006122858473ffffffffffffffffffffffffffffffffffffffff166126ec565b156123de578373ffffffffffffffffffffffffffffffffffffffff1663150b7a026122ae611847565b8786866040518563ffffffff1660e01b81526004016122d09493929190614403565b6020604051808303816000875af192505050801561230c57506040513d601f19601f820116820180604052508101906123099190614464565b60015b61238e573d806000811461233c576040519150601f19603f3d011682016040523d82523d6000602084013e612341565b606091505b506000815103612386576040517f08c379a000000000000000000000000000000000000000000000000000000000815260040161237d90614317565b60405180910390fd5b805181602001fd5b63150b7a0260e01b7bffffffffffffffffffffffffffffffffffffffffffffffffffffffff1916817bffffffffffffffffffffffffffffffffffffffffffffffffffffffff1916149150506123e3565b600190505b949350505050565b606060008203612432576040518060400160405280600181526020017f30000000000000000000000000000000000000000000000000000000000000008152509050612546565b600082905060005b6000821461246457808061244d90614366565b915050600a8261245d91906144c0565b915061243a565b60008167ffffffffffffffff8111156124805761247f612e7b565b5b6040519080825280601f01601f1916602001820160405280156124b25781602001600182028036833780820191505090505b5090505b6000851461253f576001826124cb9190614199565b9150600a856124da91906144f1565b60306124e69190613f8d565b60f81b8183815181106124fc576124fb614337565b5b60200101907effffffffffffffffffffffffffffffffffffffffffffffffffffffffffffff1916908160001a905350600a8561253891906144c0565b94506124b6565b8093505050505b919050565b612553612d0a565b612563856080015161010061270f565b508385600001818152505082856020019073ffffffffffffffffffffffffffffffffffffffff16908173ffffffffffffffffffffffffffffffffffffffff16815250508185604001907bffffffffffffffffffffffffffffffffffffffffffffffffffffffff191690817bffffffffffffffffffffffffffffffffffffffffffffffffffffffff191681525050849050949350505050565b6126088260038351612779565b61261b81836128fe90919063ffffffff16565b505050565b600080600b5490506001816126359190613f8d565b600b819055506000634042994660e01b60008087600001513089604001518760018c6080015160000151604051602401612676989796959493929190614540565b604051602081830303815290604052907bffffffffffffffffffffffffffffffffffffffffffffffffffffffff19166020820180517bffffffffffffffffffffffffffffffffffffffffffffffffffffffff838183161783525050505090506126e186838684612920565b925050509392505050565b6000808273ffffffffffffffffffffffffffffffffffffffff163b119050919050565b612717612d77565b600060208361272691906144f1565b146127525760208261273891906144f1565b60206127449190614199565b8261274f9190613f8d565b91505b81836020018181525050604051808452600081528281016020016040525082905092915050565b60178167ffffffffffffffff16116127b0576127aa8160058460ff16901b60ff161784612ab590919063ffffffff16565b506128f9565b60ff8167ffffffffffffffff1611612806576127df601860058460ff16901b1784612ab590919063ffffffff16565b506128008167ffffffffffffffff16600185612ad59092919063ffffffff16565b506128f8565b61ffff8167ffffffffffffffff161161285d57612836601960058460ff16901b1784612ab590919063ffffffff16565b506128578167ffffffffffffffff16600285612ad59092919063ffffffff16565b506128f7565b63ffffffff8167ffffffffffffffff16116128b65761288f601a60058460ff16901b1784612ab590919063ffffffff16565b506128b08167ffffffffffffffff16600485612ad59092919063ffffffff16565b506128f6565b6128d3601b60058460ff16901b1784612ab590919063ffffffff16565b506128f48167ffffffffffffffff16600885612ad59092919063ffffffff16565b505b5b5b5b505050565b612906612d77565b61291883846000015151848551612af7565b905092915050565b60003084604051602001612935929190614674565b60405160208183030381529060405280519060200120905084600c600083815260200190815260200160002060006101000a81548173ffffffffffffffffffffffffffffffffffffffff021916908373ffffffffffffffffffffffffffffffffffffffff160217905550807fb5e6e01e79f91267dc17b4e6314d5d4d03593d2ceee0fbb452b750bd70ea5af960405160405180910390a2600960009054906101000a900473ffffffffffffffffffffffffffffffffffffffff1673ffffffffffffffffffffffffffffffffffffffff16634000aea08685856040518463ffffffff1660e01b8152600401612a2b939291906146a0565b6020604051808303816000875af1158015612a4a573d6000803e3d6000fd5b505050506040513d601f19601f82011682018060405250810190612a6e9190613a87565b612aad576040517f08c379a0000000000000000000000000000000000000000000000000000000008152600401612aa490614750565b60405180910390fd5b949350505050565b612abd612d77565b612acd8384600001515184612be6565b905092915050565b612add612d77565b612aee848560000151518585612c3c565b90509392505050565b612aff612d77565b8251821115612b0d57600080fd5b84602001518285612b1e9190613f8d565b1115612b5357612b52856002612b4388602001518887612b3e9190613f8d565b612cca565b612b4d9190614770565b612ce6565b5b600080865180518760208301019350808887011115612b725787860182525b60208701925050505b60208410612bb95780518252602082612b949190613f8d565b9150602081612ba39190613f8d565b9050602084612bb29190614199565b9350612b7b565b60006001856020036101000a03905080198251168184511681811785525050508692505050949350505050565b612bee612d77565b83602001518310612c1457612c138460028660200151612c0e9190614770565b612ce6565b5b83518051602085830101848153818603612c2f576001820183525b5050508390509392505050565b612c44612d77565b84602001518483612c559190613f8d565b1115612c7d57612c7c8560028685612c6d9190613f8d565b612c779190614770565b612ce6565b5b6000600183610100612c8f91906148fd565b612c999190614199565b90508551838682010185831982511617815281518588011115612cbc5784870182525b505085915050949350505050565b600081831115612cdc57829050612ce0565b8190505b92915050565b600082600001519050612cf9838361270f565b50612d0483826128fe565b50505050565b6040518060a0016040528060008019168152602001600073ffffffffffffffffffffffffffffffffffffffff16815260200160007bffffffffffffffffffffffffffffffffffffffffffffffffffffffff1916815260200160008152602001612d71612d77565b81525090565b604051806040016040528060608152602001600081525090565b6000604051905090565b600080fd5b600080fd5b60007fffffffff0000000000000000000000000000000000000000000000000000000082169050919050565b612dda81612da5565b8114612de557600080fd5b50565b600081359050612df781612dd1565b92915050565b600060208284031215612e1357612e12612d9b565b5b6000612e2184828501612de8565b91505092915050565b60008115159050919050565b612e3f81612e2a565b82525050565b6000602082019050612e5a6000830184612e36565b92915050565b600080fd5b600080fd5b6000601f19601f8301169050919050565b7f4e487b7100000000000000000000000000000000000000000000000000000000600052604160045260246000fd5b612eb382612e6a565b810181811067ffffffffffffffff82111715612ed257612ed1612e7b565b5b80604052505050565b6000612ee5612d91565b9050612ef18282612eaa565b919050565b600067ffffffffffffffff821115612f1157612f10612e7b565b5b612f1a82612e6a565b9050602081019050919050565b82818337600083830152505050565b6000612f49612f4484612ef6565b612edb565b905082815260208101848484011115612f6557612f64612e65565b5b612f70848285612f27565b509392505050565b600082601f830112612f8d57612f8c612e60565b5b8135612f9d848260208601612f36565b91505092915050565b6000819050919050565b612fb981612fa6565b8114612fc457600080fd5b50565b600081359050612fd681612fb0565b92915050565b60008060408385031215612ff357612ff2612d9b565b5b600083013567ffffffffffffffff81111561301157613010612da0565b5b61301d85828601612f78565b925050602061302e85828601612fc7565b9150509250929050565b61304181612fa6565b82525050565b600060208201905061305c6000830184613038565b92915050565b600081519050919050565b600082825260208201905092915050565b60005b8381101561309c578082015181840152602081019050613081565b838111156130ab576000848401525b50505050565b60006130bc82613062565b6130c6818561306d565b93506130d681856020860161307e565b6130df81612e6a565b840191505092915050565b6000602082019050818103600083015261310481846130b1565b905092915050565b60006020828403121561312257613121612d9b565b5b600061313084828501612fc7565b91505092915050565b600073ffffffffffffffffffffffffffffffffffffffff82169050919050565b600061316482613139565b9050919050565b61317481613159565b82525050565b600060208201905061318f600083018461316b565b92915050565b61319e81613159565b81146131a957600080fd5b50565b6000813590506131bb81613195565b92915050565b600080604083850312156131d8576131d7612d9b565b5b60006131e6858286016131ac565b92505060206131f785828601612fc7565b9150509250929050565b60008060006060848603121561321a57613219612d9b565b5b6000613228868287016131ac565b9350506020613239868287016131ac565b925050604061324a86828701612fc7565b9150509250925092565b60006020828403121561326a57613269612d9b565b5b6000613278848285016131ac565b91505092915050565b6000819050919050565b61329481613281565b811461329f57600080fd5b50565b6000813590506132b18161328b565b92915050565b6000806000606084860312156132d0576132cf612d9b565b5b60006132de868287016132a2565b93505060206132ef86828701612fc7565b925050604061330086828701612fc7565b9150509250925092565b61331381612e2a565b811461331e57600080fd5b50565b6000813590506133308161330a565b92915050565b6000806040838503121561334d5761334c612d9b565b5b600061335b858286016131ac565b925050602061336c85828601613321565b9150509250929050565b600067ffffffffffffffff82111561339157613390612e7b565b5b61339a82612e6a565b9050602081019050919050565b60006133ba6133b584613376565b612edb565b9050828152602081018484840111156133d6576133d5612e65565b5b6133e1848285612f27565b509392505050565b600082601f8301126133fe576133fd612e60565b5b813561340e8482602086016133a7565b91505092915050565b6000806000806080858703121561343157613430612d9b565b5b600061343f878288016131ac565b9450506020613450878288016131ac565b935050604061346187828801612fc7565b925050606085013567ffffffffffffffff81111561348257613481612da0565b5b61348e878288016133e9565b91505092959194509250565b6000602082840312156134b0576134af612d9b565b5b600082013567ffffffffffffffff8111156134ce576134cd612da0565b5b6134da84828501612f78565b91505092915050565b600080604083850312156134fa576134f9612d9b565b5b6000613508858286016131ac565b9250506020613519858286016131ac565b9150509250929050565b7f416d6f756e74206c657373207468616e2074686520436572746966696361746560008201527f2050726963650000000000000000000000000000000000000000000000000000602082015250565b600061357f60268361306d565b915061358a82613523565b604082019050919050565b600060208201905081810360008301526135ae81613572565b9050919050565b600060608201905081810360008301526135cf81866130b1565b90506135de6020830185613038565b6135eb6040830184613038565b949350505050565b7f4e487b7100000000000000000000000000000000000000000000000000000000600052602260045260246000fd5b6000600282049050600182168061363a57607f821691505b60208210810361364d5761364c6135f3565b5b50919050565b7f4552433732313a20617070726f76616c20746f2063757272656e74206f776e6560008201527f7200000000000000000000000000000000000000000000000000000000000000602082015250565b60006136af60218361306d565b91506136ba82613653565b604082019050919050565b600060208201905081810360008301526136de816136a2565b9050919050565b7f4552433732313a20617070726f76652063616c6c6572206973206e6f7420746f60008201527f6b656e206f776e6572206e6f7220617070726f76656420666f7220616c6c0000602082015250565b6000613741603e8361306d565b915061374c826136e5565b604082019050919050565b6000602082019050818103600083015261377081613734565b9050919050565b7f4552433732313a2063616c6c6572206973206e6f7420746f6b656e206f776e6560008201527f72206e6f7220617070726f766564000000000000000000000000000000000000602082015250565b60006137d3602e8361306d565b91506137de82613777565b604082019050919050565b60006020820190508181036000830152613802816137c6565b9050919050565b7f4552433732313a20696e76616c696420746f6b656e2049440000000000000000600082015250565b600061383f60188361306d565b915061384a82613809565b602082019050919050565b6000602082019050818103600083015261386e81613832565b9050919050565b7f4552433732313a2061646472657373207a65726f206973206e6f74206120766160008201527f6c6964206f776e65720000000000000000000000000000000000000000000000602082015250565b60006138d160298361306d565b91506138dc82613875565b604082019050919050565b60006020820190508181036000830152613900816138c4565b9050919050565b7f536f75726365206d75737420626520746865206f7261636c65206f662074686560008201527f2072657175657374000000000000000000000000000000000000000000000000602082015250565b600061396360288361306d565b915061396e82613907565b604082019050919050565b6000602082019050818103600083015261399281613956565b9050919050565b6000819050919050565b6000819050919050565b60006139c86139c36139be84613999565b6139a3565b612fa6565b9050919050565b6139d8816139ad565b82525050565b60006040820190506139f36000830185613038565b613a0060208301846139cf565b9392505050565b600081519050613a1681612fb0565b92915050565b600060208284031215613a3257613a31612d9b565b5b6000613a4084828501613a07565b91505092915050565b6000604082019050613a5e600083018561316b565b613a6b6020830184613038565b9392505050565b600081519050613a818161330a565b92915050565b600060208284031215613a9d57613a9c612d9b565b5b6000613aab84828501613a72565b91505092915050565b7f556e61626c6520746f207472616e736665720000000000000000000000000000600082015250565b6000613aea60128361306d565b9150613af582613ab4565b602082019050919050565b60006020820190508181036000830152613b1981613add565b9050919050565b600081905092915050565b6000613b3682613062565b613b408185613b20565b9350613b5081856020860161307e565b80840191505092915050565b6000613b688285613b2b565b9150613b748284613b2b565b91508190509392505050565b60008190508160005260206000209050919050565b60006020601f8301049050919050565b600082821b905092915050565b600060088302613be27fffffffffffffffffffffffffffffffffffffffffffffffffffffffffffffffff82613ba5565b613bec8683613ba5565b95508019841693508086168417925050509392505050565b6000613c1f613c1a613c1584612fa6565b6139a3565b612fa6565b9050919050565b6000819050919050565b613c3983613c04565b613c4d613c4582613c26565b848454613bb2565b825550505050565b600090565b613c62613c55565b613c6d818484613c30565b505050565b5b81811015613c9157613c86600082613c5a565b600181019050613c73565b5050565b601f821115613cd657613ca781613b80565b613cb084613b95565b81016020851015613cbf578190505b613cd3613ccb85613b95565b830182613c72565b50505b505050565b600082821c905092915050565b6000613cf960001984600802613cdb565b1980831691505092915050565b6000613d128383613ce8565b9150826002028217905092915050565b613d2b82613062565b67ffffffffffffffff811115613d4457613d43612e7b565b5b613d4e8254613622565b613d59828285613c95565b600060209050601f831160018114613d8c5760008415613d7a578287015190505b613d848582613d06565b865550613dec565b601f198416613d9a86613b80565b60005b82811015613dc257848901518255600182019150602085019450602081019050613d9d565b86831015613ddf5784890151613ddb601f891682613ce8565b8355505b6001600288020188555050505b505050505050565b7f4f776e61626c653a206e6577206f776e657220697320746865207a65726f206160008201527f6464726573730000000000000000000000000000000000000000000000000000602082015250565b6000613e5060268361306d565b9150613e5b82613df4565b604082019050919050565b60006020820190508181036000830152613e7f81613e43565b9050919050565b7f4552433732313a206d696e7420746f20746865207a65726f2061646472657373600082015250565b6000613ebc60208361306d565b9150613ec782613e86565b602082019050919050565b60006020820190508181036000830152613eeb81613eaf565b9050919050565b7f4552433732313a20746f6b656e20616c7265616479206d696e74656400000000600082015250565b6000613f28601c8361306d565b9150613f3382613ef2565b602082019050919050565b60006020820190508181036000830152613f5781613f1b565b9050919050565b7f4e487b7100000000000000000000000000000000000000000000000000000000600052601160045260246000fd5b6000613f9882612fa6565b9150613fa383612fa6565b9250827fffffffffffffffffffffffffffffffffffffffffffffffffffffffffffffffff03821115613fd857613fd7613f5e565b5b828201905092915050565b7f45524337323155524953746f726167653a2055524920736574206f66206e6f6e60008201527f6578697374656e7420746f6b656e000000000000000000000000000000000000602082015250565b600061403f602e8361306d565b915061404a82613fe3565b604082019050919050565b6000602082019050818103600083015261406e81614032565b9050919050565b7f4552433732313a207472616e736665722066726f6d20696e636f72726563742060008201527f6f776e6572000000000000000000000000000000000000000000000000000000602082015250565b60006140d160258361306d565b91506140dc82614075565b604082019050919050565b60006020820190508181036000830152614100816140c4565b9050919050565b7f4552433732313a207472616e7366657220746f20746865207a65726f2061646460008201527f7265737300000000000000000000000000000000000000000000000000000000602082015250565b600061416360248361306d565b915061416e82614107565b604082019050919050565b6000602082019050818103600083015261419281614156565b9050919050565b60006141a482612fa6565b91506141af83612fa6565b9250828210156141c2576141c1613f5e565b5b828203905092915050565b7f4f776e61626c653a2063616c6c6572206973206e6f7420746865206f776e6572600082015250565b600061420360208361306d565b915061420e826141cd565b602082019050919050565b60006020820190508181036000830152614232816141f6565b9050919050565b7f4552433732313a20617070726f766520746f2063616c6c657200000000000000600082015250565b600061426f60198361306d565b915061427a82614239565b602082019050919050565b6000602082019050818103600083015261429e81614262565b9050919050565b7f4552433732313a207472616e7366657220746f206e6f6e20455243373231526560008201527f63656976657220696d706c656d656e7465720000000000000000000000000000602082015250565b600061430160328361306d565b915061430c826142a5565b604082019050919050565b60006020820190508181036000830152614330816142f4565b9050919050565b7f4e487b7100000000000000000000000000000000000000000000000000000000600052603260045260246000fd5b600061437182612fa6565b91507fffffffffffffffffffffffffffffffffffffffffffffffffffffffffffffffff82036143a3576143a2613f5e565b5b600182019050919050565b600081519050919050565b600082825260208201905092915050565b60006143d5826143ae565b6143df81856143b9565b93506143ef81856020860161307e565b6143f881612e6a565b840191505092915050565b6000608082019050614418600083018761316b565b614425602083018661316b565b6144326040830185613038565b818103606083015261444481846143ca565b905095945050505050565b60008151905061445e81612dd1565b92915050565b60006020828403121561447a57614479612d9b565b5b60006144888482850161444f565b91505092915050565b7f4e487b7100000000000000000000000000000000000000000000000000000000600052601260045260246000fd5b60006144cb82612fa6565b91506144d683612fa6565b9250826144e6576144e5614491565b5b828204905092915050565b60006144fc82612fa6565b915061450783612fa6565b92508261451757614516614491565b5b828206905092915050565b61452b81613281565b82525050565b61453a81612da5565b82525050565b600061010082019050614556600083018b61316b565b614563602083018a613038565b6145706040830189614522565b61457d606083018861316b565b61458a6080830187614531565b61459760a0830186613038565b6145a460c0830185613038565b81810360e08301526145b681846143ca565b90509998505050505050505050565b60006145e06145db6145d684613139565b6139a3565b613139565b9050919050565b60006145f2826145c5565b9050919050565b6000614604826145e7565b9050919050565b60008160601b9050919050565b60006146238261460b565b9050919050565b600061463582614618565b9050919050565b61464d614648826145f9565b61462a565b82525050565b6000819050919050565b61466e61466982612fa6565b614653565b82525050565b6000614680828561463c565b601482019150614690828461465d565b6020820191508190509392505050565b60006060820190506146b5600083018661316b565b6146c26020830185613038565b81810360408301526146d481846143ca565b9050949350505050565b7f756e61626c6520746f207472616e73666572416e6443616c6c20746f206f726160008201527f636c650000000000000000000000000000000000000000000000000000000000602082015250565b600061473a60238361306d565b9150614745826146de565b604082019050919050565b600060208201905081810360008301526147698161472d565b9050919050565b600061477b82612fa6565b915061478683612fa6565b9250817fffffffffffffffffffffffffffffffffffffffffffffffffffffffffffffffff04831182151516156147bf576147be613f5e565b5b828202905092915050565b60008160011c9050919050565b6000808291508390505b6001851115614821578086048111156147fd576147fc613f5e565b5b600185161561480c5780820291505b808102905061481a856147ca565b94506147e1565b94509492505050565b60008261483a57600190506148f6565b8161484857600090506148f6565b816001811461485e576002811461486857614897565b60019150506148f6565b60ff84111561487a57614879613f5e565b5b8360020a91508482111561489157614890613f5e565b5b506148f6565b5060208310610133831016604e8410600b84101617156148cc5782820a9050838111156148c7576148c6613f5e565b5b6148f6565b6148d984848460016147d7565b925090508184048111156148f0576148ef613f5e565b5b81810290505b9392505050565b600061490882612fa6565b915061491383612fa6565b92506149407fffffffffffffffffffffffffffffffffffffffffffffffffffffffffffffffff848461482a565b90509291505056fea264697066735822122007a4f1534e91ce36de13080f301b81d46555fcba3e1d5d79d5758e565565c96264736f6c634300080f0033",
  "immutableReferences": {},
  "source": "// SPDX-License-Identifier: MIT\n\npragma solidity ^0.8.7;\n\nimport \"@openzeppelin/contracts/token/ERC721/extensions/ERC721URIStorage.sol\";\nimport \"@openzeppelin/contracts/utils/Counters.sol\";\nimport \"@openzeppelin/contracts/access/Ownable.sol\";\nimport \"@chainlink/contracts/src/v0.8/ChainlinkClient.sol\";\nimport \"@chainlink/contracts/src/v0.8/ConfirmedOwner.sol\";\nimport \"./libraries/String.sol\";\n\ncontract Certificate is ERC721URIStorage, ChainlinkClient, Ownable {\n    using Counters for Counters.Counter;\n    Counters.Counter private _tokenIds;\n    using Chainlink for Chainlink.Request;\n    using String for string;\n\n    bytes32 private jobId;\n    uint256 private fee;\n    uint256 public tokenId;\n    uint256 public offsetCapacity;\n\n    address private oracle;\n    address private linkToken;\n\n    string public apiUrl;\n\n    mapping(uint256 => uint256) public offsetCapacities;\n\n    modifier checkPrice(uint256 price) {\n        require(msg.value >= price, \"Amount less than the Certificate Price\");\n        _;\n    }\n\n    event Minted(string tokenUri, uint256 timestamp, uint256 tokenId);\n\n    event TreeBurnt(uint256 timestamp, uint256 tokenId);\n\n    mapping(uint256 => bool) public treeStatus;\n\n    constructor(\n        address _oracle,\n        address _linkToken,\n        bytes32 _jobId,\n        string memory _apiUrl\n    ) ERC721(\"Project Keila\", \"KEILA\") {\n        linkToken = _linkToken;\n        oracle = _oracle;\n        setChainlinkToken(_linkToken);\n        setChainlinkOracle(_oracle);\n        jobId = _jobId;\n        fee = (1 * LINK_DIVISIBILITY) / 10; // 0,1 * 10**18 (Varies by network and job)\n        apiUrl = _apiUrl;\n    }\n\n    function setOracleDetails(\n        address _oracle,\n        address _linkToken,\n        bytes32 _jobId,\n        uint256 _fee\n    ) private onlyOwner {\n        linkToken = _linkToken;\n        oracle = _oracle;\n        setChainlinkToken(_linkToken);\n        setChainlinkOracle(_oracle);\n        jobId = _jobId;\n        fee = (_fee * LINK_DIVISIBILITY) / 10; // 0,1 * 10**18 (Varies by network and job)\n    }\n\n    function mint(string memory tokenURI, uint256 price)\n        public\n        payable\n        checkPrice(price)\n        returns (uint256)\n    {\n        _tokenIds.increment();\n\n        uint256 newItemId = _tokenIds.current();\n        _mint(msg.sender, newItemId);\n        _setTokenURI(newItemId, tokenURI);\n        treeStatus[newItemId] = true;\n        address _contractOwner = owner();\n        payable(_contractOwner).transfer(msg.value);\n        emit Minted(tokenURI, block.timestamp, newItemId);\n\n        return newItemId;\n    }\n\n    function setApiUrl(string memory _url) public {\n        apiUrl = _url;\n    }\n\n    function getTreeDetails(string memory _tokenId) public payable {\n        Chainlink.Request memory req = buildChainlinkRequest(\n            jobId,\n            address(this),\n            this.fulfill.selector\n        );\n        req.add(\"get\", apiUrl.concat(_tokenId));\n        req.add(\"pathTOKEN\", \"TOKEN\");\n        req.add(\"pathOFFSET\", \"OFFSET\");\n        sendChainlinkRequest(req, fee); // MWR API.\n    }\n\n    /**\n     * @notice Fulfillment function for multiple parameters in a single request\n     * @dev This is called by the oracle. recordChainlinkFulfillment must be used.\n     */\n\n    function fulfill(\n        bytes32 requestId,\n        uint256 tokenResponse,\n        uint256 offsetResponse\n    ) public recordChainlinkFulfillment(requestId) {\n        emit TreeBurnt(block.timestamp, 1);\n        offsetCapacities[tokenResponse] = offsetResponse;\n    }\n\n    /**\n     * Allow withdraw of Link tokens from the contract\n     */\n    function withdrawLink() public {\n        LinkTokenInterface link = LinkTokenInterface(chainlinkTokenAddress());\n        require(\n            link.transfer(msg.sender, link.balanceOf(address(this))),\n            \"Unable to transfer\"\n        );\n    }\n}\n",
  "sourcePath": "/Users/jivinvaidya/Desktop/desktop-folders/keila-contracts/contracts/Certificate.sol",
  "compiler": {
    "name": "solc",
    "version": "0.8.15+commit.e14f2714.Emscripten.clang"
  },
  "schemaVersion": "3.4.8",
  "updatedAt": "2022-08-22T17:33:19.591Z",
  "devdoc": {
    "kind": "dev",
    "methods": {
      "approve(address,uint256)": {
        "details": "See {IERC721-approve}."
      },
      "balanceOf(address)": {
        "details": "See {IERC721-balanceOf}."
      },
      "fulfill(bytes32,uint256,uint256)": {
        "details": "This is called by the oracle. recordChainlinkFulfillment must be used."
      },
      "getApproved(uint256)": {
        "details": "See {IERC721-getApproved}."
      },
      "isApprovedForAll(address,address)": {
        "details": "See {IERC721-isApprovedForAll}."
      },
      "name()": {
        "details": "See {IERC721Metadata-name}."
      },
      "owner()": {
        "details": "Returns the address of the current owner."
      },
      "ownerOf(uint256)": {
        "details": "See {IERC721-ownerOf}."
      },
      "renounceOwnership()": {
        "details": "Leaves the contract without owner. It will not be possible to call `onlyOwner` functions anymore. Can only be called by the current owner. NOTE: Renouncing ownership will leave the contract without an owner, thereby removing any functionality that is only available to the owner."
      },
      "safeTransferFrom(address,address,uint256)": {
        "details": "See {IERC721-safeTransferFrom}."
      },
      "safeTransferFrom(address,address,uint256,bytes)": {
        "details": "See {IERC721-safeTransferFrom}."
      },
      "setApprovalForAll(address,bool)": {
        "details": "See {IERC721-setApprovalForAll}."
      },
      "supportsInterface(bytes4)": {
        "details": "See {IERC165-supportsInterface}."
      },
      "symbol()": {
        "details": "See {IERC721Metadata-symbol}."
      },
      "tokenURI(uint256)": {
        "details": "See {IERC721Metadata-tokenURI}."
      },
      "transferFrom(address,address,uint256)": {
        "details": "See {IERC721-transferFrom}."
      },
      "transferOwnership(address)": {
        "details": "Transfers ownership of the contract to a new account (`newOwner`). Can only be called by the current owner."
      }
    },
    "version": 1
  },
  "userdoc": {
    "kind": "user",
    "methods": {
      "fulfill(bytes32,uint256,uint256)": {
        "notice": "Fulfillment function for multiple parameters in a single request"
      },
      "withdrawLink()": {
        "notice": "Allow withdraw of Link tokens from the contract"
      }
    },
    "version": 1
  }
}